{
  "contractName": "DecentralBank",
  "abi": [
    {
      "inputs": [
        {
          "internalType": "contract JAF",
          "name": "_jaf",
          "type": "address"
        },
        {
          "internalType": "contract Tether",
          "name": "_tether",
          "type": "address"
        }
      ],
      "stateMutability": "nonpayable",
      "type": "constructor"
    },
    {
      "inputs": [
        {
          "internalType": "address",
          "name": "",
          "type": "address"
        }
      ],
      "name": "hasStaked",
      "outputs": [
        {
          "internalType": "bool",
          "name": "",
          "type": "bool"
        }
      ],
      "stateMutability": "view",
      "type": "function"
    },
    {
      "inputs": [
        {
          "internalType": "address",
          "name": "",
          "type": "address"
        }
      ],
      "name": "isStaking",
      "outputs": [
        {
          "internalType": "bool",
          "name": "",
          "type": "bool"
        }
      ],
      "stateMutability": "view",
      "type": "function"
    },
    {
      "inputs": [],
      "name": "jaf",
      "outputs": [
        {
          "internalType": "contract JAF",
          "name": "",
          "type": "address"
        }
      ],
      "stateMutability": "view",
      "type": "function"
    },
    {
      "inputs": [],
      "name": "name",
      "outputs": [
        {
          "internalType": "string",
          "name": "",
          "type": "string"
        }
      ],
      "stateMutability": "view",
      "type": "function"
    },
    {
      "inputs": [],
      "name": "owner",
      "outputs": [
        {
          "internalType": "address",
          "name": "",
          "type": "address"
        }
      ],
      "stateMutability": "view",
      "type": "function"
    },
    {
      "inputs": [
        {
          "internalType": "uint256",
          "name": "",
          "type": "uint256"
        }
      ],
      "name": "stakers",
      "outputs": [
        {
          "internalType": "address",
          "name": "",
          "type": "address"
        }
      ],
      "stateMutability": "view",
      "type": "function"
    },
    {
      "inputs": [
        {
          "internalType": "address",
          "name": "",
          "type": "address"
        }
      ],
      "name": "stakingBalance",
      "outputs": [
        {
          "internalType": "uint256",
          "name": "",
          "type": "uint256"
        }
      ],
      "stateMutability": "view",
      "type": "function"
    },
    {
      "inputs": [],
      "name": "tether",
      "outputs": [
        {
          "internalType": "contract Tether",
          "name": "",
          "type": "address"
        }
      ],
      "stateMutability": "view",
      "type": "function"
    },
    {
      "inputs": [
        {
          "internalType": "uint256",
          "name": "_amount",
          "type": "uint256"
        }
      ],
      "name": "depositTokens",
      "outputs": [],
      "stateMutability": "nonpayable",
      "type": "function"
    },
    {
      "inputs": [],
      "name": "unstakeTokens",
      "outputs": [],
      "stateMutability": "nonpayable",
      "type": "function"
    },
    {
      "inputs": [],
      "name": "issueTokens",
      "outputs": [],
      "stateMutability": "nonpayable",
      "type": "function"
    }
  ],
  "bytecode": "0x60806040526040518060400160405280600e81526020017f446563656e7472616c2042616e6b0000000000000000000000000000000000008152505f90816100479190610376565b50348015610053575f80fd5b50604051611566380380611566833981810160405281019061007591906104ef565b8160035f6101000a81548173ffffffffffffffffffffffffffffffffffffffff021916908373ffffffffffffffffffffffffffffffffffffffff1602179055508060025f6101000a81548173ffffffffffffffffffffffffffffffffffffffff021916908373ffffffffffffffffffffffffffffffffffffffff1602179055503360015f6101000a81548173ffffffffffffffffffffffffffffffffffffffff021916908373ffffffffffffffffffffffffffffffffffffffff160217905550505061052d565b5f81519050919050565b7f4e487b71000000000000000000000000000000000000000000000000000000005f52604160045260245ffd5b7f4e487b71000000000000000000000000000000000000000000000000000000005f52602260045260245ffd5b5f60028204905060018216806101b757607f821691505b6020821081036101ca576101c9610173565b5b50919050565b5f819050815f5260205f209050919050565b5f6020601f8301049050919050565b5f82821b905092915050565b5f6008830261022c7fffffffffffffffffffffffffffffffffffffffffffffffffffffffffffffffff826101f1565b61023686836101f1565b95508019841693508086168417925050509392505050565b5f819050919050565b5f819050919050565b5f61027a6102756102708461024e565b610257565b61024e565b9050919050565b5f819050919050565b61029383610260565b6102a761029f82610281565b8484546101fd565b825550505050565b5f90565b6102bb6102af565b6102c681848461028a565b505050565b5b818110156102e9576102de5f826102b3565b6001810190506102cc565b5050565b601f82111561032e576102ff816101d0565b610308846101e2565b81016020851015610317578190505b61032b610323856101e2565b8301826102cb565b50505b505050565b5f82821c905092915050565b5f61034e5f1984600802610333565b1980831691505092915050565b5f610366838361033f565b9150826002028217905092915050565b61037f8261013c565b67ffffffffffffffff81111561039857610397610146565b5b6103a282546101a0565b6103ad8282856102ed565b5f60209050601f8311600181146103de575f84156103cc578287015190505b6103d6858261035b565b86555061043d565b601f1984166103ec866101d0565b5f5b82811015610413578489015182556001820191506020850194506020810190506103ee565b86831015610430578489015161042c601f89168261033f565b8355505b6001600288020188555050505b505050505050565b5f80fd5b5f73ffffffffffffffffffffffffffffffffffffffff82169050919050565b5f61047282610449565b9050919050565b5f61048382610468565b9050919050565b61049381610479565b811461049d575f80fd5b50565b5f815190506104ae8161048a565b92915050565b5f6104be82610468565b9050919050565b6104ce816104b4565b81146104d8575f80fd5b50565b5f815190506104e9816104c5565b92915050565b5f806040838503121561050557610504610445565b5b5f610512858286016104a0565b9250506020610523858286016104db565b9150509250929050565b61102c8061053a5f395ff3fe608060405234801561000f575f80fd5b50600436106100a7575f3560e01c80636f49712b1161006f5780636f49712b1461013f5780638da5cb5b1461016f578063a5ce413b1461018d578063c93c8f3414610197578063dd49756e146101c7578063fd5e6dd1146101e3576100a7565b806306fdde03146100ab57806345bc78ab146100c95780635efc071a146100f95780635f2886a51461011757806360ab585214610135575b5f80fd5b6100b3610213565b6040516100c09190610a69565b60405180910390f35b6100e360048036038101906100de9190610ae7565b61029e565b6040516100f09190610b2a565b60405180910390f35b6101016102b3565b60405161010e9190610b9e565b60405180910390f35b61011f6102d8565b60405161012c9190610bd7565b60405180910390f35b61013d6102fd565b005b61015960048036038101906101549190610ae7565b6104df565b6040516101669190610c0a565b60405180910390f35b6101776104fc565b6040516101849190610c32565b60405180910390f35b610195610521565b005b6101b160048036038101906101ac9190610ae7565b6106da565b6040516101be9190610c0a565b60405180910390f35b6101e160048036038101906101dc9190610c75565b6106f7565b005b6101fd60048036038101906101f89190610c75565b6109be565b60405161020a9190610c32565b60405180910390f35b5f805461021f90610ccd565b80601f016020809104026020016040519081016040528092919081815260200182805461024b90610ccd565b80156102965780601f1061026d57610100808354040283529160200191610296565b820191905f5260205f20905b81548152906001019060200180831161027957829003601f168201915b505050505081565b6005602052805f5260405f205f915090505481565b60025f9054906101000a900473ffffffffffffffffffffffffffffffffffffffff1681565b60035f9054906101000a900473ffffffffffffffffffffffffffffffffffffffff1681565b60015f9054906101000a900473ffffffffffffffffffffffffffffffffffffffff1673ffffffffffffffffffffffffffffffffffffffff163373ffffffffffffffffffffffffffffffffffffffff161461038c576040517f08c379a000000000000000000000000000000000000000000000000000000000815260040161038390610d47565b60405180910390fd5b5f5b6004805490508110156104dc575f600482815481106103b0576103af610d65565b5b905f5260205f20015f9054906101000a900473ffffffffffffffffffffffffffffffffffffffff1690505f600960055f8473ffffffffffffffffffffffffffffffffffffffff1673ffffffffffffffffffffffffffffffffffffffff1681526020019081526020015f20546104259190610dec565b90505f8111156104cd5760035f9054906101000a900473ffffffffffffffffffffffffffffffffffffffff1673ffffffffffffffffffffffffffffffffffffffff1663a9059cbb83836040518363ffffffff1660e01b815260040161048b929190610e1c565b6020604051808303815f875af11580156104a7573d5f803e3d5ffd5b505050506040513d601f19601f820116820180604052508101906104cb9190610e6d565b505b5050808060010191505061038e565b50565b6007602052805f5260405f205f915054906101000a900460ff1681565b60015f9054906101000a900473ffffffffffffffffffffffffffffffffffffffff1681565b5f60055f3373ffffffffffffffffffffffffffffffffffffffff1673ffffffffffffffffffffffffffffffffffffffff1681526020019081526020015f205490505f81116105a4576040517f08c379a000000000000000000000000000000000000000000000000000000000815260040161059b90610f08565b60405180910390fd5b60025f9054906101000a900473ffffffffffffffffffffffffffffffffffffffff1673ffffffffffffffffffffffffffffffffffffffff1663a9059cbb33836040518363ffffffff1660e01b8152600401610600929190610e1c565b6020604051808303815f875af115801561061c573d5f803e3d5ffd5b505050506040513d601f19601f820116820180604052508101906106409190610e6d565b505f60055f3373ffffffffffffffffffffffffffffffffffffffff1673ffffffffffffffffffffffffffffffffffffffff1681526020019081526020015f20819055505f60075f3373ffffffffffffffffffffffffffffffffffffffff1673ffffffffffffffffffffffffffffffffffffffff1681526020019081526020015f205f6101000a81548160ff02191690831515021790555050565b6006602052805f5260405f205f915054906101000a900460ff1681565b5f8111610739576040517f08c379a000000000000000000000000000000000000000000000000000000000815260040161073090610f70565b60405180910390fd5b60025f9054906101000a900473ffffffffffffffffffffffffffffffffffffffff1673ffffffffffffffffffffffffffffffffffffffff166323b872dd3330846040518463ffffffff1660e01b815260040161079793929190610f8e565b6020604051808303815f875af11580156107b3573d5f803e3d5ffd5b505050506040513d601f19601f820116820180604052508101906107d79190610e6d565b508060055f3373ffffffffffffffffffffffffffffffffffffffff1673ffffffffffffffffffffffffffffffffffffffff1681526020019081526020015f20546108219190610fc3565b60055f3373ffffffffffffffffffffffffffffffffffffffff1673ffffffffffffffffffffffffffffffffffffffff1681526020019081526020015f208190555060065f3373ffffffffffffffffffffffffffffffffffffffff1673ffffffffffffffffffffffffffffffffffffffff1681526020019081526020015f205f9054906101000a900460ff1661091157600433908060018154018082558091505060019003905f5260205f20015f9091909190916101000a81548173ffffffffffffffffffffffffffffffffffffffff021916908373ffffffffffffffffffffffffffffffffffffffff1602179055505b600160075f3373ffffffffffffffffffffffffffffffffffffffff1673ffffffffffffffffffffffffffffffffffffffff1681526020019081526020015f205f6101000a81548160ff021916908315150217905550600160065f3373ffffffffffffffffffffffffffffffffffffffff1673ffffffffffffffffffffffffffffffffffffffff1681526020019081526020015f205f6101000a81548160ff02191690831515021790555050565b600481815481106109cd575f80fd5b905f5260205f20015f915054906101000a900473ffffffffffffffffffffffffffffffffffffffff1681565b5f81519050919050565b5f82825260208201905092915050565b8281835e5f83830152505050565b5f601f19601f8301169050919050565b5f610a3b826109f9565b610a458185610a03565b9350610a55818560208601610a13565b610a5e81610a21565b840191505092915050565b5f6020820190508181035f830152610a818184610a31565b905092915050565b5f80fd5b5f73ffffffffffffffffffffffffffffffffffffffff82169050919050565b5f610ab682610a8d565b9050919050565b610ac681610aac565b8114610ad0575f80fd5b50565b5f81359050610ae181610abd565b92915050565b5f60208284031215610afc57610afb610a89565b5b5f610b0984828501610ad3565b91505092915050565b5f819050919050565b610b2481610b12565b82525050565b5f602082019050610b3d5f830184610b1b565b92915050565b5f819050919050565b5f610b66610b61610b5c84610a8d565b610b43565b610a8d565b9050919050565b5f610b7782610b4c565b9050919050565b5f610b8882610b6d565b9050919050565b610b9881610b7e565b82525050565b5f602082019050610bb15f830184610b8f565b92915050565b5f610bc182610b6d565b9050919050565b610bd181610bb7565b82525050565b5f602082019050610bea5f830184610bc8565b92915050565b5f8115159050919050565b610c0481610bf0565b82525050565b5f602082019050610c1d5f830184610bfb565b92915050565b610c2c81610aac565b82525050565b5f602082019050610c455f830184610c23565b92915050565b610c5481610b12565b8114610c5e575f80fd5b50565b5f81359050610c6f81610c4b565b92915050565b5f60208284031215610c8a57610c89610a89565b5b5f610c9784828501610c61565b91505092915050565b7f4e487b71000000000000000000000000000000000000000000000000000000005f52602260045260245ffd5b5f6002820490506001821680610ce457607f821691505b602082108103610cf757610cf6610ca0565b5b50919050565b7f63616c6c6572206d75737420626520746865206f776e657200000000000000005f82015250565b5f610d31601883610a03565b9150610d3c82610cfd565b602082019050919050565b5f6020820190508181035f830152610d5e81610d25565b9050919050565b7f4e487b71000000000000000000000000000000000000000000000000000000005f52603260045260245ffd5b7f4e487b71000000000000000000000000000000000000000000000000000000005f52601260045260245ffd5b7f4e487b71000000000000000000000000000000000000000000000000000000005f52601160045260245ffd5b5f610df682610b12565b9150610e0183610b12565b925082610e1157610e10610d92565b5b828204905092915050565b5f604082019050610e2f5f830185610c23565b610e3c6020830184610b1b565b9392505050565b610e4c81610bf0565b8114610e56575f80fd5b50565b5f81519050610e6781610e43565b92915050565b5f60208284031215610e8257610e81610a89565b5b5f610e8f84828501610e59565b91505092915050565b7f7374616b696e672062616c616e63652063616e6e6f74206265206c65737320745f8201527f68616e207a65726f000000000000000000000000000000000000000000000000602082015250565b5f610ef2602883610a03565b9150610efd82610e98565b604082019050919050565b5f6020820190508181035f830152610f1f81610ee6565b9050919050565b7f616d6f756e742063616e6e6f74206265203000000000000000000000000000005f82015250565b5f610f5a601283610a03565b9150610f6582610f26565b602082019050919050565b5f6020820190508181035f830152610f8781610f4e565b9050919050565b5f606082019050610fa15f830186610c23565b610fae6020830185610c23565b610fbb6040830184610b1b565b949350505050565b5f610fcd82610b12565b9150610fd883610b12565b9250828201905080821115610ff057610fef610dbf565b5b9291505056fea2646970667358221220071550f118e9365bdb13e19aaaf68da70b02b1986b0f953d9fe15bc83d28f6bc64736f6c634300081a0033",
  "immutableReferences": {},
  "source": "// SPDX-License-Identifier: MIT\npragma solidity >=0.8.2 <0.9.0;\n\nimport \"./JAF.sol\";\nimport \"./Tether.sol\";\n\ncontract DecentralBank {\n    string public name = \"Decentral Bank\";\n    address public owner;\n    Tether public tether;\n    JAF public jaf;\n\n    address[] public stakers;\n\n    mapping(address => uint) public stakingBalance;\n    mapping(address => bool) public hasStaked;\n    mapping(address => bool) public isStaking;\n\n    constructor(JAF _jaf, Tether _tether) {\n        jaf = _jaf;\n        tether = _tether;\n        owner = msg.sender;\n    }\n\n    // staking function\n    function depositTokens(uint _amount) public {\n        // require staking amount to be greater than zero\n        require(_amount > 0, \"amount cannot be 0\");\n\n        // Transfer tether tokens to this contract address for staking\n        tether.transferFrom(msg.sender, address(this), _amount);\n\n        // Update Staking Balance\n        stakingBalance[msg.sender] = stakingBalance[msg.sender] + _amount;\n\n        if (!hasStaked[msg.sender]) {\n            stakers.push(msg.sender);\n        }\n\n        // Update Staking Balance\n        isStaking[msg.sender] = true;\n        hasStaked[msg.sender] = true;\n    }\n\n    // unstake tokens\n    function unstakeTokens() public {\n        uint balance = stakingBalance[msg.sender];\n        // require the amount to be greater than zero\n        require(balance > 0, \"staking balance cannot be less than zero\");\n\n        // transfer the tokens to the specified contract address from our bank\n        tether.transfer(msg.sender, balance);\n\n        // reset staking balance\n        stakingBalance[msg.sender] = 0;\n\n        // Update Staking Status\n        isStaking[msg.sender] = false;\n    }\n\n    // issue rewards\n    function issueTokens() public {\n        // Only owner can call this function\n        require(msg.sender == owner, \"caller must be the owner\");\n\n        // issue tokens to all stakers\n        for (uint i = 0; i < stakers.length; i++) {\n            address recipient = stakers[i];\n            uint balance = stakingBalance[recipient] / 9;\n            if (balance > 0) {\n                jaf.transfer(recipient, balance);\n            }\n        }\n    }\n}\n",
  "sourcePath": "F:\\0_Projects\\React\\first-react-app\\contracts\\DecentralBank.sol",
  "compiler": {
    "name": "solc",
    "version": "0.8.26+commit.8a97fa7a.Emscripten.clang"
  },
  "schemaVersion": "3.4.16",
  "updatedAt": "2025-01-25T00:06:04.104Z",
  "devdoc": {
    "kind": "dev",
    "methods": {},
    "version": 1
  },
  "userdoc": {
    "kind": "user",
    "methods": {},
    "version": 1
  }
}