{
  "contractName": "DecentralBank",
  "abi": [
    {
      "inputs": [
        {
          "internalType": "contract JAF",
          "name": "_jaf",
          "type": "address"
        },
        {
          "internalType": "contract Tether",
          "name": "_tether",
          "type": "address"
        }
      ],
      "stateMutability": "nonpayable",
      "type": "constructor"
    },
    {
      "inputs": [
        {
          "internalType": "address",
          "name": "",
          "type": "address"
        }
      ],
      "name": "hasStaked",
      "outputs": [
        {
          "internalType": "bool",
          "name": "",
          "type": "bool"
        }
      ],
      "stateMutability": "view",
      "type": "function"
    },
    {
      "inputs": [
        {
          "internalType": "address",
          "name": "",
          "type": "address"
        }
      ],
      "name": "isStaking",
      "outputs": [
        {
          "internalType": "bool",
          "name": "",
          "type": "bool"
        }
      ],
      "stateMutability": "view",
      "type": "function"
    },
    {
      "inputs": [],
      "name": "jaf",
      "outputs": [
        {
          "internalType": "contract JAF",
          "name": "",
          "type": "address"
        }
      ],
      "stateMutability": "view",
      "type": "function"
    },
    {
      "inputs": [],
      "name": "name",
      "outputs": [
        {
          "internalType": "string",
          "name": "",
          "type": "string"
        }
      ],
      "stateMutability": "view",
      "type": "function"
    },
    {
      "inputs": [],
      "name": "owner",
      "outputs": [
        {
          "internalType": "address",
          "name": "",
          "type": "address"
        }
      ],
      "stateMutability": "view",
      "type": "function"
    },
    {
      "inputs": [
        {
          "internalType": "uint256",
          "name": "",
          "type": "uint256"
        }
      ],
      "name": "stakers",
      "outputs": [
        {
          "internalType": "address",
          "name": "",
          "type": "address"
        }
      ],
      "stateMutability": "view",
      "type": "function"
    },
    {
      "inputs": [
        {
          "internalType": "address",
          "name": "",
          "type": "address"
        }
      ],
      "name": "stakingBalance",
      "outputs": [
        {
          "internalType": "uint256",
          "name": "",
          "type": "uint256"
        }
      ],
      "stateMutability": "view",
      "type": "function"
    },
    {
      "inputs": [],
      "name": "tether",
      "outputs": [
        {
          "internalType": "contract Tether",
          "name": "",
          "type": "address"
        }
      ],
      "stateMutability": "view",
      "type": "function"
    },
    {
      "inputs": [
        {
          "internalType": "uint256",
          "name": "_amount",
          "type": "uint256"
        }
      ],
      "name": "depositTokens",
      "outputs": [],
      "stateMutability": "nonpayable",
      "type": "function"
    },
    {
      "inputs": [],
      "name": "unstakeTokens",
      "outputs": [],
      "stateMutability": "nonpayable",
      "type": "function"
    },
    {
      "inputs": [],
      "name": "issueTokens",
      "outputs": [],
      "stateMutability": "nonpayable",
      "type": "function"
    }
  ],
  "bytecode": "0x60806040526040518060400160405280600e81526020017f446563656e7472616c2042616e6b000000000000000000000000000000000000815250600090805190602001906200005192919062000150565b503480156200005f57600080fd5b50604051620014b9380380620014b983398181016040528101906200008591906200022e565b81600360006101000a81548173ffffffffffffffffffffffffffffffffffffffff021916908373ffffffffffffffffffffffffffffffffffffffff16021790555080600260006101000a81548173ffffffffffffffffffffffffffffffffffffffff021916908373ffffffffffffffffffffffffffffffffffffffff16021790555033600160006101000a81548173ffffffffffffffffffffffffffffffffffffffff021916908373ffffffffffffffffffffffffffffffffffffffff160217905550505062000364565b8280546200015e90620002cb565b90600052602060002090601f016020900481019282620001825760008555620001ce565b82601f106200019d57805160ff1916838001178555620001ce565b82800160010185558215620001ce579182015b82811115620001cd578251825591602001919060010190620001b0565b5b509050620001dd9190620001e1565b5090565b5b80821115620001fc576000816000905550600101620001e2565b5090565b600081519050620002118162000330565b92915050565b60008151905062000228816200034a565b92915050565b600080604083850312156200024257600080fd5b6000620002528582860162000200565b9250506020620002658582860162000217565b9150509250929050565b60006200027c82620002ab565b9050919050565b600062000290826200026f565b9050919050565b6000620002a4826200026f565b9050919050565b600073ffffffffffffffffffffffffffffffffffffffff82169050919050565b60006002820490506001821680620002e457607f821691505b60208210811415620002fb57620002fa62000301565b5b50919050565b7f4e487b7100000000000000000000000000000000000000000000000000000000600052602260045260246000fd5b6200033b8162000283565b81146200034757600080fd5b50565b620003558162000297565b81146200036157600080fd5b50565b61114580620003746000396000f3fe608060405234801561001057600080fd5b50600436106100a95760003560e01c80636f49712b116100715780636f49712b146101425780638da5cb5b14610172578063a5ce413b14610190578063c93c8f341461019a578063dd49756e146101ca578063fd5e6dd1146101e6576100a9565b806306fdde03146100ae57806345bc78ab146100cc5780635efc071a146100fc5780635f2886a51461011a57806360ab585214610138575b600080fd5b6100b6610216565b6040516100c39190610d0d565b60405180910390f35b6100e660048036038101906100e19190610ad9565b6102a4565b6040516100f39190610d8f565b60405180910390f35b6101046102bc565b6040516101119190610cf2565b60405180910390f35b6101226102e2565b60405161012f9190610cd7565b60405180910390f35b610140610308565b005b61015c60048036038101906101579190610ad9565b610533565b6040516101699190610cbc565b60405180910390f35b61017a610553565b6040516101879190610c41565b60405180910390f35b610198610579565b005b6101b460048036038101906101af9190610ad9565b610750565b6040516101c19190610cbc565b60405180910390f35b6101e460048036038101906101df9190610b2b565b610770565b005b61020060048036038101906101fb9190610b2b565b610a5b565b60405161020d9190610c41565b60405180910390f35b6000805461022390610f10565b80601f016020809104026020016040519081016040528092919081815260200182805461024f90610f10565b801561029c5780601f106102715761010080835404028352916020019161029c565b820191906000526020600020905b81548152906001019060200180831161027f57829003601f168201915b505050505081565b60056020528060005260406000206000915090505481565b600260009054906101000a900473ffffffffffffffffffffffffffffffffffffffff1681565b600360009054906101000a900473ffffffffffffffffffffffffffffffffffffffff1681565b600160009054906101000a900473ffffffffffffffffffffffffffffffffffffffff1673ffffffffffffffffffffffffffffffffffffffff163373ffffffffffffffffffffffffffffffffffffffff1614610398576040517f08c379a000000000000000000000000000000000000000000000000000000000815260040161038f90610d2f565b60405180910390fd5b60005b600480549050811015610530576000600482815481106103e4577f4e487b7100000000000000000000000000000000000000000000000000000000600052603260045260246000fd5b9060005260206000200160009054906101000a900473ffffffffffffffffffffffffffffffffffffffff16905060006009600560008473ffffffffffffffffffffffffffffffffffffffff1673ffffffffffffffffffffffffffffffffffffffff1681526020019081526020016000205461045f9190610e1c565b9050600081111561051b57600360009054906101000a900473ffffffffffffffffffffffffffffffffffffffff1673ffffffffffffffffffffffffffffffffffffffff1663a9059cbb83836040518363ffffffff1660e01b81526004016104c7929190610c93565b602060405180830381600087803b1580156104e157600080fd5b505af11580156104f5573d6000803e3d6000fd5b505050506040513d601f19601f820116820180604052508101906105199190610b02565b505b5050808061052890610f42565b91505061039b565b50565b60076020528060005260406000206000915054906101000a900460ff1681565b600160009054906101000a900473ffffffffffffffffffffffffffffffffffffffff1681565b6000600560003373ffffffffffffffffffffffffffffffffffffffff1673ffffffffffffffffffffffffffffffffffffffff16815260200190815260200160002054905060008111610600576040517f08c379a00000000000000000000000000000000000000000000000000000000081526004016105f790610d4f565b60405180910390fd5b600260009054906101000a900473ffffffffffffffffffffffffffffffffffffffff1673ffffffffffffffffffffffffffffffffffffffff1663a9059cbb33836040518363ffffffff1660e01b815260040161065d929190610c93565b602060405180830381600087803b15801561067757600080fd5b505af115801561068b573d6000803e3d6000fd5b505050506040513d601f19601f820116820180604052508101906106af9190610b02565b506000600560003373ffffffffffffffffffffffffffffffffffffffff1673ffffffffffffffffffffffffffffffffffffffff168152602001908152602001600020819055506000600760003373ffffffffffffffffffffffffffffffffffffffff1673ffffffffffffffffffffffffffffffffffffffff16815260200190815260200160002060006101000a81548160ff02191690831515021790555050565b60066020528060005260406000206000915054906101000a900460ff1681565b600081116107b3576040517f08c379a00000000000000000000000000000000000000000000000000000000081526004016107aa90610d6f565b60405180910390fd5b600260009054906101000a900473ffffffffffffffffffffffffffffffffffffffff1673ffffffffffffffffffffffffffffffffffffffff166323b872dd3330846040518463ffffffff1660e01b815260040161081293929190610c5c565b602060405180830381600087803b15801561082c57600080fd5b505af1158015610840573d6000803e3d6000fd5b505050506040513d601f19601f820116820180604052508101906108649190610b02565b5080600560003373ffffffffffffffffffffffffffffffffffffffff1673ffffffffffffffffffffffffffffffffffffffff168152602001908152602001600020546108b09190610dc6565b600560003373ffffffffffffffffffffffffffffffffffffffff1673ffffffffffffffffffffffffffffffffffffffff16815260200190815260200160002081905550600660003373ffffffffffffffffffffffffffffffffffffffff1673ffffffffffffffffffffffffffffffffffffffff16815260200190815260200160002060009054906101000a900460ff166109a8576004339080600181540180825580915050600190039060005260206000200160009091909190916101000a81548173ffffffffffffffffffffffffffffffffffffffff021916908373ffffffffffffffffffffffffffffffffffffffff1602179055505b6001600760003373ffffffffffffffffffffffffffffffffffffffff1673ffffffffffffffffffffffffffffffffffffffff16815260200190815260200160002060006101000a81548160ff0219169083151502179055506001600660003373ffffffffffffffffffffffffffffffffffffffff1673ffffffffffffffffffffffffffffffffffffffff16815260200190815260200160002060006101000a81548160ff02191690831515021790555050565b60048181548110610a6b57600080fd5b906000526020600020016000915054906101000a900473ffffffffffffffffffffffffffffffffffffffff1681565b600081359050610aa9816110ca565b92915050565b600081519050610abe816110e1565b92915050565b600081359050610ad3816110f8565b92915050565b600060208284031215610aeb57600080fd5b6000610af984828501610a9a565b91505092915050565b600060208284031215610b1457600080fd5b6000610b2284828501610aaf565b91505092915050565b600060208284031215610b3d57600080fd5b6000610b4b84828501610ac4565b91505092915050565b610b5d81610e4d565b82525050565b610b6c81610e5f565b82525050565b610b7b81610e95565b82525050565b610b8a81610eb9565b82525050565b6000610b9b82610daa565b610ba58185610db5565b9350610bb5818560208601610edd565b610bbe81611018565b840191505092915050565b6000610bd6601883610db5565b9150610be182611029565b602082019050919050565b6000610bf9602883610db5565b9150610c0482611052565b604082019050919050565b6000610c1c601283610db5565b9150610c27826110a1565b602082019050919050565b610c3b81610e8b565b82525050565b6000602082019050610c566000830184610b54565b92915050565b6000606082019050610c716000830186610b54565b610c7e6020830185610b54565b610c8b6040830184610c32565b949350505050565b6000604082019050610ca86000830185610b54565b610cb56020830184610c32565b9392505050565b6000602082019050610cd16000830184610b63565b92915050565b6000602082019050610cec6000830184610b72565b92915050565b6000602082019050610d076000830184610b81565b92915050565b60006020820190508181036000830152610d278184610b90565b905092915050565b60006020820190508181036000830152610d4881610bc9565b9050919050565b60006020820190508181036000830152610d6881610bec565b9050919050565b60006020820190508181036000830152610d8881610c0f565b9050919050565b6000602082019050610da46000830184610c32565b92915050565b600081519050919050565b600082825260208201905092915050565b6000610dd182610e8b565b9150610ddc83610e8b565b9250827fffffffffffffffffffffffffffffffffffffffffffffffffffffffffffffffff03821115610e1157610e10610f8b565b5b828201905092915050565b6000610e2782610e8b565b9150610e3283610e8b565b925082610e4257610e41610fba565b5b828204905092915050565b6000610e5882610e6b565b9050919050565b60008115159050919050565b600073ffffffffffffffffffffffffffffffffffffffff82169050919050565b6000819050919050565b6000610ea082610ea7565b9050919050565b6000610eb282610e6b565b9050919050565b6000610ec482610ecb565b9050919050565b6000610ed682610e6b565b9050919050565b60005b83811015610efb578082015181840152602081019050610ee0565b83811115610f0a576000848401525b50505050565b60006002820490506001821680610f2857607f821691505b60208210811415610f3c57610f3b610fe9565b5b50919050565b6000610f4d82610e8b565b91507fffffffffffffffffffffffffffffffffffffffffffffffffffffffffffffffff821415610f8057610f7f610f8b565b5b600182019050919050565b7f4e487b7100000000000000000000000000000000000000000000000000000000600052601160045260246000fd5b7f4e487b7100000000000000000000000000000000000000000000000000000000600052601260045260246000fd5b7f4e487b7100000000000000000000000000000000000000000000000000000000600052602260045260246000fd5b6000601f19601f8301169050919050565b7f63616c6c6572206d75737420626520746865206f776e65720000000000000000600082015250565b7f7374616b696e672062616c616e63652063616e6e6f74206265206c657373207460008201527f68616e207a65726f000000000000000000000000000000000000000000000000602082015250565b7f616d6f756e742063616e6e6f7420626520300000000000000000000000000000600082015250565b6110d381610e4d565b81146110de57600080fd5b50565b6110ea81610e5f565b81146110f557600080fd5b50565b61110181610e8b565b811461110c57600080fd5b5056fea2646970667358221220b444081f9beb96ee0a46b61ce9c9afeb9458495216d11806fd89372e113b829364736f6c63430008020033",
  "immutableReferences": {},
  "source": "// SPDX-License-Identifier: MIT\npragma solidity ^0.8.2;\n\nimport \"./JAF.sol\";\nimport \"./Tether.sol\";\n\ncontract DecentralBank {\n    string public name = \"Decentral Bank\";\n    address public owner;\n    Tether public tether;\n    JAF public jaf;\n\n    address[] public stakers;\n\n    mapping(address => uint) public stakingBalance;\n    mapping(address => bool) public hasStaked;\n    mapping(address => bool) public isStaking;\n\n    constructor(JAF _jaf, Tether _tether) {\n        jaf = _jaf;\n        tether = _tether;\n        owner = msg.sender;\n    }\n\n    // staking function\n    function depositTokens(uint _amount) public {\n        // require staking amount to be greater than zero\n        require(_amount > 0, \"amount cannot be 0\");\n\n        // Transfer tether tokens to this contract address for staking\n        tether.transferFrom(msg.sender, address(this), _amount);\n\n        // Update Staking Balance\n        stakingBalance[msg.sender] = stakingBalance[msg.sender] + _amount;\n\n        if (!hasStaked[msg.sender]) {\n            stakers.push(msg.sender);\n        }\n\n        // Update Staking Balance\n        isStaking[msg.sender] = true;\n        hasStaked[msg.sender] = true;\n    }\n\n    // unstake tokens\n    function unstakeTokens() public {\n        uint balance = stakingBalance[msg.sender];\n        // require the amount to be greater than zero\n        require(balance > 0, \"staking balance cannot be less than zero\");\n\n        // transfer the tokens to the specified contract address from our bank\n        tether.transfer(msg.sender, balance);\n\n        // reset staking balance\n        stakingBalance[msg.sender] = 0;\n\n        // Update Staking Status\n        isStaking[msg.sender] = false;\n    }\n\n    // issue rewards\n    function issueTokens() public {\n        // Only owner can call this function\n        require(msg.sender == owner, \"caller must be the owner\");\n\n        // issue tokens to all stakers\n        for (uint i = 0; i < stakers.length; i++) {\n            address recipient = stakers[i];\n            uint balance = stakingBalance[recipient] / 9;\n            if (balance > 0) {\n                jaf.transfer(recipient, balance);\n            }\n        }\n    }\n}\n",
  "sourcePath": "F:\\0_Projects\\React\\first-react-app\\contracts\\DecentralBank.sol",
  "compiler": {
    "name": "solc",
    "version": "0.8.2+commit.661d1103.Emscripten.clang"
  },
  "schemaVersion": "3.4.16",
  "updatedAt": "2025-01-26T16:19:18.158Z",
  "devdoc": {
    "kind": "dev",
    "methods": {},
    "version": 1
  },
  "userdoc": {
    "kind": "user",
    "methods": {},
    "version": 1
  }
}